:10087700456C656374726F6E6963207363616C6541
:10088700004279204C757869616F6368656E67000F
:100897005765696768743D00204B670054503D00F9
:1008A70020434E590055503D0020434E592F4B676A
:0E08B7000020202020202020202020202000B3
:10099100011200041C000000000413000000000408
:1009A10018000000000308000000010F00011700FB
:0A09B100040B00000000021000001B
:10000300120A267F80120A6D7BFF7A08797712091C
:10001300BC7FC0120A6D7BFF7A0879881209BC1273
:100023000ABA120ABA7FE87E031209E6120ABA1262
:100033000ABA7F01120A6D7F007E20120A3E8F08E2
:100043007F017E20120A3E8F097F027E20120A3E24
:100053008F0AAF09EF3395E0FE7C007D0A1206326A
:10006300AA06AB07AF08EF3395E0FE7D64120632B4
:10007300EF2BFFEE3AFEAD0AED3395E0FCEF2DF5E5
:1000830011EE3CF5101208247F80120A6D7BFF7A73
:100093000879971209BCE47B107A27F9F8AF1BAEF5
:1000A3001AAD19AC18120910AC00AD01AE02AF03C2
:1000B300E47BE87A03F9F8120910EF2430FF120AFF
:1000C300827F2E120A82E47BE87A03F9F8AF1BAE33
:1000D3001AAD19AC18120910AC00AD01AE02AF0392
:1000E300E47B64FAF9F8120910EF2430FF120A8254
:1000F300E47B64FAF9F8AF1BAE1AAD19AC18120918
:1001030010AC00AD01AE02AF03E47B0AFAF9F812BA
:100113000910EF2430FF120A82E47B0AFAF9F8AFE0
:100123001BAE1AAD19AC18120910EB2430FF120ADA
:10013300827BFF7A08799F1209BCAE10AF11E4FCF1
:10014300FDAB1BAA1AA919A8181206448F0E8E0D0F
:100153008D0C8C0B1208C58F12E5126401705E05BD
:100163000FE50F64057056F50FFF7E20120A97AD59
:10017300087F007E20120A56AD097F017E20120AF5
:1001830056AD0A7F027E20120A56AF09EF3395E07F
:10019300FE7C007D0A120632AA06AB07AF08EF33D6
:1001A30095E0FE7D64120632EF2BFFEE3AFEAD0AB8
:1001B300ED3395E0FCEF2DF511EE3CF510E512B4AF
:1001C300021CE50F60182406F8067406250FF8E6EE
:1001D300C36480948A40077406250FF8E4F6E51299
:1001E300B4031CE50F60182406F8167406250FF8EF
:1001F300E6D36480947F50077406250FF87609E5EB
:1002030012B40403120ABAE50F600A0517E517B41E
:100213000603E4F517E50F1470030203711470036A
:100223000203AE1470030203EC14700302042A24C5
:100233000460030204697FC0120A6D7BFF7A0879A8
:10024300A31209BC7B807A9679987800AF0EAE0D25
:10025300AD0CAC0B120910AC00AD01AE02AF037BC9
:10026300407A42790F7800120910EF2430FF120A06
:10027300827B407A42790F7800AF0EAE0DAD0CACA5
:100283000B120910AC00AD01AE02AF037BA07A865E
:1002930079017800120910EF2430FF120A827BA043
:1002A3007A8679017800AF0EAE0DAD0CAC0B120956
:1002B30010AC00AD01AE02AF03E47B107A27F9F86E
:1002C300120910EF2430FF120A827F2E120A82E4F1
:1002D3007B107A27F9F8AF0EAE0DAD0CAC0B1209FB
:1002E30010AC00AD01AE02AF03E47BE87A03F9F88A
:1002F300120910EF2430FF120A82E47BE87A03F933
:10030300F8AF0EAE0DAD0CAC0B120910AC00AD0185
:10031300AE02AF03E47B64FAF9F8120910EF24305C
:10032300FF120A82E47B64FAF9F8AF0EAE0DAD0C4E
:10033300AC0B120910AC00AD01AE02AF03E47B0AB3
:10034300FAF9F8120910EF2430FF120A82E47B0A4B
:10035300FAF9F8AF0EAE0DAD0CAC0B120910EB248D
:1003630030FF120A827BFF7A0879A70204667FC0F6
:10037300120A6D7BFF7A0879AC1209BCE5082430B8
:10038300FF120A82E5092430FF120A827F2E120A25
:1003930082E50A2430FF120A827BFF7A0879B012C1
:1003A30009BC7BFF7A0879B80204667FC0120A6D24
:1003B3007BFF7A0879AC1209BCE517C39403500795
:1003C300E5082430FF80027F20120A82E5092430E9
:1003D300FF120A827F2E120A82E50A2430FF120AD4
:1003E300827BFF7A0879B0807A7FC0120A6D7BFF27
:1003F3007A0879AC1209BCE5082430FF120A82E5B9
:1004030017C394035007E5092430FF80027F2012AD
:100413000A827F2E120A82E50A2430FF120A827BA7
:10042300FF7A0879B0803C7FC0120A6D7BFF7A089F
:1004330079AC1209BCE5082430FF120A82E50924CD
:1004430030FF120A827F2E120A82E517C3940350EB
:1004530007E50A2430FF80027F20120A827BFF7A9D
:100463000879B01209BCE47F687E10FDFCAB1BAABF
:100473001AA919A818C31206A14015E47F887E1390
:10048300FDFCA8181206A15007C2A0D2A102008841
:10049300E47F887E13FDFCAB1BAA1AA919A818C315
:1004A3001206A14009C2A2C2A1D2A0020088D2A210
:0704B300D2A1D2A0020088D3
:100824001209548F1B8E1A8D198C18C3E51B95164B
:10083400F51BE51A9515F51AE5199514F519E5183A
:100844009513F518AF1BAE1AAD19FC33401BEC120F
:10085400055A7B007A8079E378431204BD12059827
:100864008F1B8E1A8D198C1822E4F51BF51AF519B5
:03087400F5182252
:0C0ABA001209548F168E158D148C132217
:0409E2007F0A7E000A
:1009E600E4FDFCC3ED9FEC9E5015E4FBFA0BBB0047
:0F09F600010AEB647B4A70F50DBD00010C80E433
:010A050022CE
:0E0AAC00C2A2C2A11209E2D2A2D2A10209E6A0
:1008C50020B50F1209E220B509120AAC30B5FD7F3B
:1008D500012220B60F1209E220B609120AAC30B681
:1008E500FD7F022220B70F1209E220B709120AACD8
:1008F50030B7FD7F032220930F1209E220930912DE
:0B0905000AAC3093FD7F04227F00222B
:100A0600E4FDFCC3ED9FEC9E5015E4FBFA0BBB0026
:0F0A1600010AEB647B4A70F50DBD00010C80E412
:010A250022AE
:100A6D00A907C2927F017E00120A06D290898012D8
:050A7D000A06C29022F0
:100A8200A907D2927F017E00120A068980D29012B3
:050A92000A06C29022DB
:1009BC008B208A218922AB20AA21A922120619FF99
:1009CC00D394004010120A8274012522F522E435DA
:0609DC0021F52180E1225B
:100A2600C290C2917F38120A6D7F0C120A6D7F0642
:080A3600120A6D7F01020A6D36
:030AE600000022EB
:10095400D2B3120AE6C2B27F007E007D007C002082
:10096400B3FDE4FBD2B278011206B7C2B230B30DC4
:10097400EF2401FFE43EFEE43DFDE43CFC0BBB1828
:0C098400E3D2B2ED6480FD120AE6C2B2BC
:010990002244
:0C0AC600C2AF53E71843E70143E780226A
:090ADD0053E77FE4F5E6D2AF22F5
:0B0AD200120AC675E64675E6B9002260
:100A3E00AD07AC068CE3EDF5E453E5F843E50112A2
:080A4E000AD2120ADDAFE22218
:100A9700EE54FEFEF5E3E4F5E453E5F843E503120F
:050AA7000AD2020ADD85
:100A5600AB07AA068AE3EBF5E453E5F843E5028D16
:070A6600E2120AD2020ADDD0
:1004BA0002060EEC5D046005E859047003020604A6
:1004CA001205CF580460F6EC4860F2EC7004FDFEA9
:1004DA00FF22C860DB2481C85009C3986002500615
:1004EA0002060B9850CAF582E9294B4A7005AB827D
:1004FA000205FA75F0007C1A7880C3EF9BEE9AED3C
:10050A0099400DC3EF9BFFEE9AFEED99FDE842F08C
:10051A00DC23ACF0D0E0FFD0E0FED0E0FDAB8220DF
:10052A00E7101BEB60BAEC2CFCEF33FFEE33FEED69
:10053A0033FD0205E6E803F830E705C0F075F00080
:10054A00EF2FFFEE33FEED33FD40B830E7C280AA4D
:10055A0075F020800E75F010800575F0087D007E1C
:10056A00007F003392D530D503120693EC33401046
:10057A00EF33FFEE33FEED33FDEC33FCD5F0ED2225
:0E058A00E5F0247EA2D513CC92E7CDCEFF2261
:10059800EDD2E7CD33EC3392D524814006E4FFFE5B
:1005A800FDFC22FCE4CFCECDCC24E0501174FF80BA
:1005B800EDC3CC13CCCD13CDCE13CECF13CF047057
:0705C800F030D5DE020693BE
:1005CF00E9D2E7C933E833F892D5EDD2E7CD33EC72
:0705DF0033FC5002B2D522EB
:1005E600EC30E7100FBF000C0EBE00080DBD000476
:1005F6000BEB6014A2D5EB13FCED92E7FD2274FF22
:10060600FCFDFEFF22E480F8A2D574FF13FC7D807A
:03061600E480EF8E
:030000000207985C
:0C079800787FE4F6D8FD7581220207DFAF
:10061900BB010689828A83E0225002E722BBFE02DF
:09062900E32289828A83E4932212
:10063200EF8DF0A4A8F0CF8CF0A428CE8DF0A42EDC
:02064200FE2296
:10064400E88FF0A4CC8BF0A42CFCE98EF0A42CFC55
:100654008AF0EDA42CFCEA8EF0A4CDA8F08BF0A4D3
:100664002DCC3825F0FDE98FF0A42CCD35F0FCEB32
:100674008EF0A4FEA9F0EB8FF0A4CFC5F02ECD39F7
:0F068400FEE43CFCEAA42DCE35F0FDE43CFC2264
:10091000C2D5E830E70FB2D5E4C39BFBE49AFAE412
:1009200099F9E498F8EC30E717B2D51209461207A6
:1009300006E4C39BFBE49AFAE499F9E498F880038F
:1009400012070630D50DE4C39FFFE49EFEE49DFD33
:04095000E49CFC2205
:0E069300C3E49FFFE49EFEE49DFDE49CFC2278
:1006A100EB9FF5F0EA9E42F0E99D42F0EC6480C8D0
:0606B10064809845F02270
:1006B700E8600FEFC333FFEE33FEED33FDEC33FCA1
:0306C700D8F12245
:1007A400020003E493A3F8E493A34003F68001F268
:1007B40008DFF48029E493A3F85407240CC8C33356
:1007C400C4540F4420C8834004F456800146F6DF25
:1007D400E4800B0102040810204080900991E47E1B
:1007E400019360BCA3FF543F30E509541FFEE4931A
:1007F400A360010ECF54C025E060A840B8E493A3E1
:10080400FAE493A3F8E493A3C8C582C8CAC583CA0B
:10081400F0A3C8C582C8CAC583CADFE9DEE780BEC3
:0109BB00003B
:1006CA0075F008758200EF2FFFEE33FECD33CDCCE7
:1006DA0033CCC58233C5829BED9AEC99E58298406A
:1006EA000CF582EE9BFEED9AFDEC99FC0FD5F0D647
:1006FA00E4CEFBE4CDFAE4CCF9A88222B800C1B971
:10070A000059BA002DEC8BF084CFCECDFCE5F0CBAE
:10071A00F97818EF2FFFEE33FEED33FDEC33FCEBE7
:10072A0033FB10D703994004EB99FB0FD8E5E4F9A2
:10073A00FA227818EF2FFFEE33FEED33FDEC33FC8F
:10074A00C933C910D7059BE99A4007EC9BFCE99A83
:10075A00F90FD8E0E4C9FAE4CCFB2275F010EF2FC8
:10076A00FFEE33FEED33FDCC33CCC833C810D707C8
:10077A009BEC9AE899400AED9BFDEC9AFCE899F803
:0E078A000FD5F0DAE4CDFBE4CCFAE4C8F92296
:00000001FF
